{
  "abi": [
    {
      "inputs": [],
      "stateMutability": "nonpayable",
      "type": "constructor"
    },
    {
      "anonymous": false,
      "inputs": [
        {
          "indexed": true,
          "internalType": "address",
          "name": "user",
          "type": "address"
        }
      ],
      "name": "Drip",
      "type": "event"
    },
    {
      "anonymous": false,
      "inputs": [],
      "name": "OutOfFunds",
      "type": "event"
    },
    {
      "inputs": [
        {
          "internalType": "uint256",
          "name": "newRate",
          "type": "uint256"
        }
      ],
      "name": "changeBaseDripRate",
      "outputs": [],
      "stateMutability": "nonpayable",
      "type": "function"
    },
    {
      "inputs": [],
      "name": "dai",
      "outputs": [
        {
          "internalType": "address",
          "name": "",
          "type": "address"
        }
      ],
      "stateMutability": "view",
      "type": "function"
    },
    {
      "inputs": [],
      "name": "donate",
      "outputs": [],
      "stateMutability": "payable",
      "type": "function"
    },
    {
      "inputs": [
        {
          "internalType": "address",
          "name": "user",
          "type": "address"
        },
        {
          "internalType": "uint256",
          "name": "amount",
          "type": "uint256"
        }
      ],
      "name": "drip",
      "outputs": [],
      "stateMutability": "nonpayable",
      "type": "function"
    },
    {
      "inputs": [],
      "name": "isSolvent",
      "outputs": [
        {
          "internalType": "bool",
          "name": "",
          "type": "bool"
        }
      ],
      "stateMutability": "view",
      "type": "function"
    },
    {
      "inputs": [],
      "name": "nft",
      "outputs": [
        {
          "internalType": "address",
          "name": "",
          "type": "address"
        }
      ],
      "stateMutability": "view",
      "type": "function"
    },
    {
      "inputs": [],
      "name": "owner",
      "outputs": [
        {
          "internalType": "address",
          "name": "",
          "type": "address"
        }
      ],
      "stateMutability": "view",
      "type": "function"
    },
    {
      "inputs": [
        {
          "internalType": "address",
          "name": "newOwner",
          "type": "address"
        }
      ],
      "name": "setOwner",
      "outputs": [],
      "stateMutability": "nonpayable",
      "type": "function"
    },
    {
      "inputs": [],
      "name": "wMNT",
      "outputs": [
        {
          "internalType": "address",
          "name": "",
          "type": "address"
        }
      ],
      "stateMutability": "view",
      "type": "function"
    },
    {
      "stateMutability": "payable",
      "type": "receive"
    }
  ],
  "bytecode": {
    "object": "0x608060405267016345785d8a000060045534801561001c57600080fd5b50600380546001600160a01b0319163317905560405161003b9061010f565b604051809103906000f080158015610057573d6000803e3d6000fd5b50600080546001600160a01b0319166001600160a01b03929092169190911790556040516100849061011c565b604051809103906000f0801580156100a0573d6000803e3d6000fd5b50600180546001600160a01b0319166001600160a01b03929092169190911790556040516100cd90610129565b604051809103906000f0801580156100e9573d6000803e3d6000fd5b50600280546001600160a01b0319166001600160a01b0392909216919091179055610136565b6113028061084583390190565b610acf80611b4783390190565b610bd48061261683390190565b610700806101456000396000f3fe60806040526004361061008a5760003560e01c80635ce23950116100595780635ce239501461013b5780638da5cb5b146101655780639e353a1e14610185578063ed88c68e146101a5578063f4b9fa75146101ad57600080fd5b806313af40351461009e57806321328e5b146100be57806347ccca02146100de5780635768daa41461011b57600080fd5b36610099576100976101cd565b005b600080fd5b3480156100aa57600080fd5b506100976100b93660046105fe565b61028a565b3480156100ca57600080fd5b506100976100d9366004610620565b6102d6565b3480156100ea57600080fd5b506002546100fe906001600160a01b031681565b6040516001600160a01b0390911681526020015b60405180910390f35b34801561012757600080fd5b506001546100fe906001600160a01b031681565b34801561014757600080fd5b506005546101559060ff1681565b6040519015158152602001610112565b34801561017157600080fd5b506003546100fe906001600160a01b031681565b34801561019157600080fd5b506100976101a0366004610639565b610305565b6100976101cd565b3480156101b957600080fd5b506000546100fe906001600160a01b031681565b600034116102105760405162461bcd60e51b815260206004820152600b60248201526a2727afa227a720aa24a7a760a91b60448201526064015b60405180910390fd5b6001546001600160a01b031663d0e30db061022c600234610663565b6040518263ffffffff1660e01b81526004016000604051808303818588803b15801561025757600080fd5b505af115801561026b573d6000803e3d6000fd5b5050505050600454471115610288576005805460ff191660011790555b565b6003546001600160a01b031633146102b45760405162461bcd60e51b815260040161020790610685565b600380546001600160a01b0319166001600160a01b0392909216919091179055565b6003546001600160a01b031633146103005760405162461bcd60e51b815260040161020790610685565b600455565b6003546001600160a01b0316331461032f5760405162461bcd60e51b815260040161020790610685565b6000546040516340c10f1960e01b81526001600160a01b038481166004830152683635c9adc5dea000006024830152909116906340c10f1990604401600060405180830381600087803b15801561038557600080fd5b505af1158015610399573d6000803e3d6000fd5b50506002546040516333d2e68360e11b81526001600160a01b03868116600483015290911692506367a5cd069150602401600060405180830381600087803b1580156103e457600080fd5b505af11580156103f8573d6000803e3d6000fd5b50505050804710156104fb5760045447106104c4576001546004805460405163a9059cbb60e01b81526001600160a01b0386811693820193909352602481019190915291169063a9059cbb906044016020604051808303816000875af1158015610466573d6000803e3d6000fd5b505050506040513d601f19601f8201168201806040525081019061048a91906106a8565b506004546040516001600160a01b0384169180156108fc02916000818181858888f193505050501580156104c2573d6000803e3d6000fd5b505b6005805460ff191690556040517f5cc4d4e2397f909efdc05489f71c523c59913a6ffde292799faaca096635e16d90600090a15050565b60015460405163a9059cbb60e01b81526001600160a01b038481166004830152602482018490529091169063a9059cbb906044016020604051808303816000875af115801561054e573d6000803e3d6000fd5b505050506040513d601f19601f8201168201806040525081019061057291906106a8565b506040516001600160a01b0383169082156108fc029083906000818181858888f193505050501580156105a9573d6000803e3d6000fd5b506040516001600160a01b038316907f9a6488909505f07c33edf1a9bfa9c43fc342a86748cabdccbfcec5a3e3ab8d9b90600090a25050565b80356001600160a01b03811681146105f957600080fd5b919050565b60006020828403121561061057600080fd5b610619826105e2565b9392505050565b60006020828403121561063257600080fd5b5035919050565b6000806040838503121561064c57600080fd5b610655836105e2565b946020939093013593505050565b60008261068057634e487b7160e01b600052601260045260246000fd5b500490565b6020808252600990820152682727aa2fa7aba722a960b91b604082015260600190565b6000602082840312156106ba57600080fd5b8151801515811461061957600080fdfea26469706673582212208c92f30b3d8dd1c1982f14a4e4136f74f43822e3ae733a53254675bee732a6bc64736f6c6343000813003360c060405234801561001057600080fd5b503360008181526020819052604080822060019055517fdd0e34038ac38b2a1ce960229778ac48a8719bc900b6c4f8d0475c6e8b385a609190a2466080818152604080518082018252600e81526d2230b49029ba30b13632b1b7b4b760911b6020918201528151808301835260018152601960f91b9082015281517f8b73c3c69bb8fe3d512ecc4cf759cc79239f7b179b0ffacaa9a75d522b39400f818301527f0b1461ddc0c1d5ded79a1db0f74dae949050a7c0b28728c724b24958c27a328b818401527fad7c5bef027816a800da1736444fb58a807ef4c9603b7848673f7e3a68eb14a560608201529283018490523060a0808501919091528251808503909101815260c0909301909152815191012060a0525060805160a0516111a2610160600039600081816105f10152610b7801526000818161034e015281816105bc0152610b4301526111a26000f3fe608060405234801561001057600080fd5b50600436106101425760003560e01c806370a08231116100b8578063a457c2d71161007c578063a457c2d714610303578063a9059cbb14610316578063bf353dbb14610329578063cd0d009614610349578063d505accf14610370578063dd62ed3e1461038357600080fd5b806370a082311461027b5780637ecebe001461029b57806395d89b41146102bb5780639c52a7f1146102dd5780639dc29fac146102f057600080fd5b8063313ce5671161010a578063313ce567146101fe5780633644e51514610218578063395093511461022057806340c10f191461023357806354fd4d501461024857806365fae35e1461026857600080fd5b806306fdde0314610147578063095ea7b31461018a57806318160ddd146101ad57806323b872dd146101c457806330adf81f146101d7575b600080fd5b6101746040518060400160405280600e81526020016d2230b49029ba30b13632b1b7b4b760911b81525081565b6040516101819190610e98565b60405180910390f35b61019d610198366004610f02565b6103ae565b6040519015158152602001610181565b6101b660015481565b604051908152602001610181565b61019d6101d2366004610f2c565b61041b565b6101b67f6e71edae12b1b97f4d1f60370fef10105fa2faae0126114a169c64845d6126c981565b610206601281565b60405160ff9091168152602001610181565b6101b66105b7565b61019d61022e366004610f02565b610617565b610246610241366004610f02565b6106af565b005b610174604051806040016040528060018152602001601960f91b81525081565b610246610276366004610f68565b61079b565b6101b6610289366004610f68565b60026020526000908152604090205481565b6101b66102a9366004610f68565b60046020526000908152604090205481565b6101746040518060400160405280600381526020016244414960e81b81525081565b6102466102eb366004610f68565b61080f565b6102466102fe366004610f02565b610882565b61019d610311366004610f02565b6109cf565b61019d610324366004610f02565b610a1d565b6101b6610337366004610f68565b60006020819052908152604090205481565b6101b67f000000000000000000000000000000000000000000000000000000000000000081565b61024661037e366004610f8a565b610af9565b6101b6610391366004610ffd565b600360209081526000928352604080842090915290825290205481565b3360008181526003602090815260408083206001600160a01b038716808552925280832085905551919290917f8c5be1e5ebec7d5bd14f71427d1e84f3dd0314c0f7b2291e5b200ac8c7c3b925906104099086815260200190565b60405180910390a35060015b92915050565b60006001600160a01b0383161580159061043e57506001600160a01b0383163014155b6104635760405162461bcd60e51b815260040161045a90611030565b60405180910390fd5b6001600160a01b0384166000908152600260205260409020548281101561049c5760405162461bcd60e51b815260040161045a9061105d565b6001600160a01b038516331461052a576001600160a01b0385166000908152600360209081526040808320338452909152902054600019811461052857838110156104f95760405162461bcd60e51b815260040161045a90611094565b61050384826110e1565b6001600160a01b03871660009081526003602090815260408083203384529091529020555b505b61053483826110e1565b6001600160a01b03808716600090815260026020526040808220939093559086168152908120805485929061056a9084906110f4565b92505081905550836001600160a01b0316856001600160a01b031660008051602061114d833981519152856040516105a491815260200190565b60405180910390a3506001949350505050565b6000467f000000000000000000000000000000000000000000000000000000000000000081146105ef576105ea81610da6565b610611565b7f00000000000000000000000000000000000000000000000000000000000000005b91505090565b3360009081526003602090815260408083206001600160a01b038616845290915281205481906106479084610e7d565b3360008181526003602090815260408083206001600160a01b038a16808552908352928190208590555184815293945090927f8c5be1e5ebec7d5bd14f71427d1e84f3dd0314c0f7b2291e5b200ac8c7c3b92591015b60405180910390a35060019392505050565b336000908152602081905260409020546001146106de5760405162461bcd60e51b815260040161045a90611107565b6001600160a01b038216158015906106ff57506001600160a01b0382163014155b61071b5760405162461bcd60e51b815260040161045a90611030565b6001600160a01b03821660009081526002602052604090205461073f9082906110f4565b6001600160a01b0383166000908152600260205260409020556001546107659082610e7d565b6001556040518181526001600160a01b0383169060009060008051602061114d8339815191529060200160405180910390a35050565b336000908152602081905260409020546001146107ca5760405162461bcd60e51b815260040161045a90611107565b6001600160a01b03811660008181526020819052604080822060019055517fdd0e34038ac38b2a1ce960229778ac48a8719bc900b6c4f8d0475c6e8b385a609190a250565b3360009081526020819052604090205460011461083e5760405162461bcd60e51b815260040161045a90611107565b6001600160a01b038116600081815260208190526040808220829055517f184450df2e323acec0ed3b5c7531b81f9b4cdef7914dfd4c0a4317416bb5251b9190a250565b6001600160a01b038216600090815260026020526040902054818110156108bb5760405162461bcd60e51b815260040161045a9061105d565b6001600160a01b03831633148015906108e4575033600090815260208190526040902054600114155b15610967576001600160a01b0383166000908152600360209081526040808320338452909152902054600019811461096557828110156109365760405162461bcd60e51b815260040161045a90611094565b61094083826110e1565b6001600160a01b03851660009081526003602090815260408083203384529091529020555b505b61097182826110e1565b6001600160a01b0384166000908152600260205260409020556001546109989083906110e1565b6001556040518281526000906001600160a01b0385169060008051602061114d8339815191529060200160405180910390a3505050565b3360009081526003602090815260408083206001600160a01b038616845290915281205482811015610a135760405162461bcd60e51b815260040161045a90611094565b61064783826110e1565b60006001600160a01b03831615801590610a4057506001600160a01b0383163014155b610a5c5760405162461bcd60e51b815260040161045a90611030565b3360009081526002602052604090205482811015610a8c5760405162461bcd60e51b815260040161045a9061105d565b610a9683826110e1565b33600090815260026020526040808220929092556001600160a01b03861681529081208054859290610ac99084906110f4565b90915550506040518381526001600160a01b03851690339060008051602061114d8339815191529060200161069d565b83421115610b3e5760405162461bcd60e51b815260206004820152601260248201527111185a4bdc195c9b5a5d0b595e1c1a5c995960721b604482015260640161045a565b4660007f00000000000000000000000000000000000000000000000000000000000000008214610b7657610b7182610da6565b610b98565b7f00000000000000000000000000000000000000000000000000000000000000005b6001600160a01b038a16600090815260046020526040812080547f6e71edae12b1b97f4d1f60370fef10105fa2faae0126114a169c64845d6126c9928d928d928d92909190610be683611133565b909155506040805160208101969096526001600160a01b0394851690860152929091166060840152608083015260a082015260c0810188905260e00160405160208183030381529060405280519060200120604051602001610c5f92919061190160f01b81526002810192909252602282015260420190565b60408051601f19818403018152919052805160209091012090506001600160a01b03891615801590610cfe575060408051600081526020810180835283905260ff871691810191909152606081018590526080810184905260019060a0016020604051602081039080840390855afa158015610cdf573d6000803e3d6000fd5b505050602060405103516001600160a01b0316896001600160a01b0316145b610d3f5760405162461bcd60e51b815260206004820152601260248201527111185a4bda5b9d985b1a590b5c195c9b5a5d60721b604482015260640161045a565b6001600160a01b038981166000818152600360209081526040808320948d16808452948252918290208b905590518a81527f8c5be1e5ebec7d5bd14f71427d1e84f3dd0314c0f7b2291e5b200ac8c7c3b925910160405180910390a3505050505050505050565b604080518082018252600e81526d2230b49029ba30b13632b1b7b4b760911b6020918201528151808301835260018152601960f91b9082015281517f8b73c3c69bb8fe3d512ecc4cf759cc79239f7b179b0ffacaa9a75d522b39400f818301527f0b1461ddc0c1d5ded79a1db0f74dae949050a7c0b28728c724b24958c27a328b818401527fad7c5bef027816a800da1736444fb58a807ef4c9603b7848673f7e3a68eb14a5606082015260808101939093523060a0808501919091528251808503909101815260c0909301909152815191012090565b600082610e8a83826110f4565b915081101561041557600080fd5b600060208083528351808285015260005b81811015610ec557858101830151858201604001528201610ea9565b506000604082860101526040601f19601f8301168501019250505092915050565b80356001600160a01b0381168114610efd57600080fd5b919050565b60008060408385031215610f1557600080fd5b610f1e83610ee6565b946020939093013593505050565b600080600060608486031215610f4157600080fd5b610f4a84610ee6565b9250610f5860208501610ee6565b9150604084013590509250925092565b600060208284031215610f7a57600080fd5b610f8382610ee6565b9392505050565b600080600080600080600060e0888a031215610fa557600080fd5b610fae88610ee6565b9650610fbc60208901610ee6565b95506040880135945060608801359350608088013560ff81168114610fe057600080fd5b9699959850939692959460a0840135945060c09093013592915050565b6000806040838503121561101057600080fd5b61101983610ee6565b915061102760208401610ee6565b90509250929050565b6020808252601390820152724461692f696e76616c69642d6164647265737360681b604082015260600190565b60208082526018908201527f4461692f696e73756666696369656e742d62616c616e63650000000000000000604082015260600190565b6020808252601a908201527f4461692f696e73756666696369656e742d616c6c6f77616e6365000000000000604082015260600190565b634e487b7160e01b600052601160045260246000fd5b81810381811115610415576104156110cb565b80820180821115610415576104156110cb565b60208082526012908201527111185a4bdb9bdd0b585d5d1a1bdc9a5e995960721b604082015260600190565b600060018201611145576111456110cb565b506001019056feddf252ad1be2c89b69c2b068fc378daa952ba7f163c4a11628f55a4df523b3efa2646970667358221220038774fe99c273c68c6ebb72ce7aeaabdf9c25b2c2c0583ad94be8f423ff524e64736f6c63430008130033608060405234801561001057600080fd5b50610aaf806100206000396000f3fe6080604052600436106100f75760003560e01c806370a082311161008a578063a9059cbb11610059578063a9059cbb146102ef578063d0e30db01461030f578063d505accf14610317578063dd62ed3e1461033757600080fd5b806370a082311461023c5780637ecebe001461026f57806395d89b41146102a2578063a457c2d7146102cf57600080fd5b80632e1a7d4d116100c65780632e1a7d4d146101cb578063313ce567146101eb5780633644e51514610207578063395093511461021c57600080fd5b806306fdde031461010b578063095ea7b31461015457806318160ddd1461018457806323b872dd146101ab57600080fd5b366101065761010461036d565b005b600080fd5b34801561011757600080fd5b5060408051808201909152600e81526d57726170706564204d616e746c6560901b60208201525b60405161014b9190610888565b60405180910390f35b34801561016057600080fd5b5061017461016f3660046108f2565b6103a4565b604051901515815260200161014b565b34801561019057600080fd5b506805345cdf77eb68f44c545b60405190815260200161014b565b3480156101b757600080fd5b506101746101c636600461091c565b6103e5565b3480156101d757600080fd5b506101046101e6366004610958565b610491565b3480156101f757600080fd5b506040516012815260200161014b565b34801561021357600080fd5b5061019d6104e5565b34801561022857600080fd5b506101746102373660046108f2565b610570565b34801561024857600080fd5b5061019d610257366004610971565b6387a211a2600c908152600091909152602090205490565b34801561027b57600080fd5b5061019d61028a366004610971565b6338377508600c908152600091909152602090205490565b3480156102ae57600080fd5b5060408051808201909152600481526315d3539560e21b602082015261013e565b3480156102db57600080fd5b506101746102ea3660046108f2565b6105d0565b3480156102fb57600080fd5b5061017461030a3660046108f2565b610631565b61010461036d565b34801561032357600080fd5b50610104610332366004610993565b61069a565b34801561034357600080fd5b5061019d610352366004610a06565b602052637f5e9f20600c908152600091909152603490205490565b61037733346107b6565b34600052337fe1fffcc4923d04b559f4d29a8bfc6cda04eb5b0d3c460751c2402c5c5cc9109c60206000a2565b600082602052637f5e9f20600c5233600052816034600c205581600052602c5160601c33600080516020610a5a83398151915260206000a350600192915050565b60008360601b33602052637f5e9f208117600c526034600c2080546000198114610425578085111561041f576313be252b6000526004601cfd5b84810382555b50506387a211a28117600c526020600c2080548085111561044e5763f4d678b86000526004601cfd5b84810382555050836000526020600c208381540181555082602052600c5160601c8160601c600080516020610a3a833981519152602080a3505060019392505050565b61049b3382610823565b80600052337f7fcf532c15f0a6db0bd6d0e038bea71d30d808c7d98cb3bf7268a95bf5081b6560206000a260008060008084335af16104e25763b12d13eb6000526004601cfd5b50565b60408051808201918290527f8b73c3c69bb8fe3d512ecc4cf759cc79239f7b179b0ffacaa9a75d522b39400f81527f1a0441713f3fc586e455746880c74856cf9f7ee3cb3b97688054b916bfbc884260208201527fc89efdaa54c0f20c7adf612882df0950f5a951637e0307cdcb4c672f298b8bc690915246606082015230608082015260a0902090565b600082602052637f5e9f20600c52336000526034600c208054838101818110156105a25763f90670666000526004601cfd5b80835580600052505050602c5160601c33600080516020610a5a83398151915260206000a350600192915050565b600082602052637f5e9f20600c52336000526034600c208054838110156105ff57638301ab386000526004601cfd5b8381039050808255806000525050602c5160601c33600080516020610a5a83398151915260206000a350600192915050565b60006387a211a2600c52336000526020600c2080548084111561065c5763f4d678b86000526004601cfd5b83810382555050826000526020600c208281540181555081602052600c5160601c33600080516020610a3a833981519152602080a350600192915050565b60006106a46104e5565b9050604051854211156106bf57631a15a3cc6000526004601cfd5b8860601b60601c98508760601b60601c97506338377508600c52886000526020600c2080546001810182557f6e71edae12b1b97f4d1f60370fef10105fa2faae0126114a169c64845d6126c983528a602084015289604084015288606084015280608084015250508560a08201526119016000528160205260c081206040526042601e206000528460ff1660205283604052826060526020806080600060015afa50883d51146107775763ddafbaef6000526004601cfd5b6303faf4f960a51b88176040526034602c208790558789600080516020610a5a833981519152602060608501a360405250506000606052505050505050565b6805345cdf77eb68f44c54818101818110156107da5763e5cfe9576000526004601cfd5b806805345cdf77eb68f44c5550506387a211a2600c52816000526020600c208181540181555080602052600c5160601c6000600080516020610a3a833981519152602080a35050565b6387a211a2600c52816000526020600c2080548083111561084c5763f4d678b86000526004601cfd5b82900390556805345cdf77eb68f44c8054829003905560008181526001600160a01b038316600080516020610a3a833981519152602083a35050565b600060208083528351808285015260005b818110156108b557858101830151858201604001528201610899565b506000604082860101526040601f19601f8301168501019250505092915050565b80356001600160a01b03811681146108ed57600080fd5b919050565b6000806040838503121561090557600080fd5b61090e836108d6565b946020939093013593505050565b60008060006060848603121561093157600080fd5b61093a846108d6565b9250610948602085016108d6565b9150604084013590509250925092565b60006020828403121561096a57600080fd5b5035919050565b60006020828403121561098357600080fd5b61098c826108d6565b9392505050565b600080600080600080600060e0888a0312156109ae57600080fd5b6109b7886108d6565b96506109c5602089016108d6565b95506040880135945060608801359350608088013560ff811681146109e957600080fd5b9699959850939692959460a0840135945060c09093013592915050565b60008060408385031215610a1957600080fd5b610a22836108d6565b9150610a30602084016108d6565b9050925092905056feddf252ad1be2c89b69c2b068fc378daa952ba7f163c4a11628f55a4df523b3ef8c5be1e5ebec7d5bd14f71427d1e84f3dd0314c0f7b2291e5b200ac8c7c3b925a26469706673582212202be2dc6b9cbc859af05c9e0905c88ea3a35b1886942326a6e3a02a20e1b962b164736f6c63430008130033608060405234801561001057600080fd5b50600080546001600160a01b03191633179055610ba2806100326000396000f3fe6080604052600436106100fe5760003560e01c80636352211e11610095578063a22cb46511610064578063a22cb465146102d1578063b88d4fde146102f1578063c87b56dd14610304578063de5f72fd14610324578063e985e9c51461034457600080fd5b80636352211e1461024557806367a5cd061461026557806370a082311461028557806395d89b41146102a557600080fd5b806315efc9c8116100d157806315efc9c8146101e557806318160ddd1461020957806323b872dd1461021f57806342842e0e1461023257600080fd5b806301ffc9a71461010357806306fdde0314610155578063081812fc14610198578063095ea7b3146101d0575b600080fd5b34801561010f57600080fd5b5061014061011e3660046108a7565b6301ffc9a760e09190911c9081146380ac58cd821417635b5e139f9091141790565b60405190151581526020015b60405180910390f35b34801561016157600080fd5b506040805180820190915260118152701350539513114811905550d15508139195607a1b60208201525b60405161014c91906108d8565b3480156101a457600080fd5b506101b86101b3366004610926565b61037a565b6040516001600160a01b03909116815260200161014c565b6101e36101de366004610956565b6103bd565b005b3480156101f157600080fd5b506101fb60015481565b60405190815260200161014c565b34801561021557600080fd5b506101fb60025481565b6101e361022d366004610980565b6103cc565b6101e3610240366004610980565b6104e3565b34801561025157600080fd5b506101b8610260366004610926565b610510565b34801561027157600080fd5b506101e36102803660046109bc565b61054e565b34801561029157600080fd5b506101fb6102a03660046109bc565b6105b9565b3480156102b157600080fd5b5060408051808201909152600381526213919560ea1b602082015261018b565b3480156102dd57600080fd5b506101e36102ec3660046109d7565b6105f4565b6101e36102ff366004610a13565b61064a565b34801561031057600080fd5b5061018b61031f366004610926565b6106a5565b34801561033057600080fd5b506000546101b8906001600160a01b031681565b34801561035057600080fd5b5061014061035f366004610aae565b601c52670a5a2e7a000000006008526000526030600c205490565b6000818152673ec412a9852d173d60c11b601c52602081208201820180546001600160a01b03166103b35763ceea21b66000526004601cfd5b6001015492915050565b6103c83383836106c6565b5050565b6000818152673ec412a9852d173d60c11b3317601c52602090208101810180546001600160a01b03948516949384169381169190828614830261042a578261041c5763ceea21b66000526004601cfd5b63a11481006000526004601cfd5b8461043d5763ea553b346000526004601cfd5b85600052816001015492508233148633141761046b576030600c205461046b57634b6e7f186000526004601cfd5b821561047957600082600101555b85851818905550601c600c8181208054600019019055600084905220805460010163ffffffff81166104b3576301336cea6000526004601cfd5b90558082847fddf252ad1be2c89b69c2b068fc378daa952ba7f163c4a11628f55a4df523b3ef600080a45b505050565b6104ee8383836103cc565b813b156104de576104de83838360405180602001604052806000815250610767565b6000818152673ec412a9852d173d60c11b601c526020902081018101546001600160a01b0316806105495763ceea21b66000526004601cfd5b919050565b60015460005b600a811015610582576105708361056b8385610af7565b6107f9565b8061057a81610b10565b915050610554565b50600a600160008282546105969190610af7565b92505081905550600a600260008282546105b09190610af7565b90915550505050565b6000816105ce57638f4eb6046000526004601cfd5b673ec412a9852d173d60c11b601c528160005263ffffffff601c600c2054169050919050565b801515905081601c52670a5a2e7a0000000060085233600052806030600c2055806000528160601b60601c337f17307eab39ab6107e8899845ad3d59bd9653f200f220920489ca2b5937696c3160206000a35050565b6106558585856103cc565b833b1561069e5761069e85858585858080601f01602080910402602001604051908101604052809392919081815260200183838082843760009201919091525061076792505050565b5050505050565b6060604051806080016040528060438152602001610b2a6043913992915050565b60001960601c828116925083811693508160005283673ec412a9852d173d60c11b17601c526020600020820182018054821691508161070d5763ceea21b66000526004601cfd5b81851485151761073357816000526030600c205461073357634b6e7f186000526004601cfd5b6001018390558183827f8c5be1e5ebec7d5bd14f71427d1e84f3dd0314c0f7b2291e5b200ac8c7c3b925600080a450505050565b60405163150b7a028082523360208301528560601b60601c604083015283606083015260808083015282518060a084015280156107ae578060c08401826020870160045afa505b60208360a48301601c860160008a5af16107d7573d156107d2573d6000803e3d6000fd5b600083525b508060e01b8251146107f15763d1a57ed66000526004601cfd5b505050505050565b6001600160a01b0390911690816108185763ea553b346000526004601cfd5b80600052673ec412a9852d173d60c11b601c5260206000208101810180548060601b1561084d5763c991cbb16000526004601cfd5b831790556000829052601c600c20805460010163ffffffff8116610879576301336cea6000526004601cfd5b9055808260007fddf252ad1be2c89b69c2b068fc378daa952ba7f163c4a11628f55a4df523b3ef8180a45050565b6000602082840312156108b957600080fd5b81356001600160e01b0319811681146108d157600080fd5b9392505050565b600060208083528351808285015260005b81811015610905578581018301518582016040015282016108e9565b506000604082860101526040601f19601f8301168501019250505092915050565b60006020828403121561093857600080fd5b5035919050565b80356001600160a01b038116811461054957600080fd5b6000806040838503121561096957600080fd5b6109728361093f565b946020939093013593505050565b60008060006060848603121561099557600080fd5b61099e8461093f565b92506109ac6020850161093f565b9150604084013590509250925092565b6000602082840312156109ce57600080fd5b6108d18261093f565b600080604083850312156109ea57600080fd5b6109f38361093f565b915060208301358015158114610a0857600080fd5b809150509250929050565b600080600080600060808688031215610a2b57600080fd5b610a348661093f565b9450610a426020870161093f565b935060408601359250606086013567ffffffffffffffff80821115610a6657600080fd5b818801915088601f830112610a7a57600080fd5b813581811115610a8957600080fd5b896020828501011115610a9b57600080fd5b9699959850939650602001949392505050565b60008060408385031215610ac157600080fd5b610aca8361093f565b9150610ad86020840161093f565b90509250929050565b634e487b7160e01b600052601160045260246000fd5b80820180821115610b0a57610b0a610ae1565b92915050565b600060018201610b2257610b22610ae1565b506001019056fe68747470733a2f2f697066732e696f2f697066732f516d65577252643979516b33486243485733703764676a355a574876644e707552396a445872613868576e356f31a2646970667358221220e23e7b0394e1e6b5b91531aec9ad10aecea2e9b7588446fb30b4a2bb9c83eb8364736f6c63430008130033",
    "linkReferences": {}
  },
  "methodIdentifiers": {
    "changeBaseDripRate(uint256)": "21328e5b",
    "dai()": "f4b9fa75",
    "donate()": "ed88c68e",
    "drip(address,uint256)": "9e353a1e",
    "isSolvent()": "5ce23950",
    "nft()": "47ccca02",
    "owner()": "8da5cb5b",
    "setOwner(address)": "13af4035",
    "wMNT()": "5768daa4"
  },
  "id": 19
}